00COTAHIST.2010BOVESPA 20101230                                                                                                                                                                                                                      
012010010402ABCB4       010ABC BRASIL  PN  EJ  N2   R$  000000000120000000000012420000000001200000000000123200000000012350000000001234000000000123500421000000000000205500000000000253269800000000000000009999123100000010000000000000BRABCBACNPR4109
012010010496ABCB4F      020ABC BRASIL  PN  EJ  N2   R$  000000000121000000000012510000000001210000000000122800000000012400000000001238000000000124000017000000000000000423000000000000520805000000000000009999123100000010000000000000BRABCBACNPR4109
012010010402ABNB3       010ABNOTE      ON  ED  NM   R$  000000000189700000000019450000000001890000000000191300000000019300000000001925000000000193000240000000000000289400000000000553926000000000000000009999123100000010000000000000BRABNBACNOR4114
012010010496ABNB3F      020ABNOTE      ON  ED  NM   R$  000000000189500000000019150000000001895000000000191300000000019150000000001895000000000191500004000000000000000033000000000000063159000000000000009999123100000010000000000000BRABNBACNOR4114
012010010462ABNB3T      030ABNOTE      ON  ED  NM031R$  000000000192600000000019270000000001926000000000192600000000019270000000000000000000000000000002000000000000004000000000000007707860000000000000009999123100000010000000000000BRABNBACNOR4114
99COTAHIST.2010BOVESPA 2010123000000287482                                                                                                                                                                                                           
