00COTAHIST.2023BOVESPA 20230607                                                                                                                                                                                                                      
012023060702BIOM3       010BIOMM       ON      MA   R$  000000000058800000000006050000000000587000000000058800000000005870000000000580000000000058800013000000000000016900000000000009942700000000000000009999123100000010000000000000BRBIOMACNOR2110
012023060702BLAU3       010BLAU        ON      NM   R$  000000000213200000000021960000000002084000000000213100000000021490000000002144000000000214905539000000000000838500000000001787445400000000000000009999123100000010000000000000BRBLAUACNOR8110
012023060702BMEB3       010MERC BRASIL ON      N1   R$  000000000112500000000011500000000001125000000000114700000000011500000000001111000000000115500002000000000000000900000000000001032500000000000000009999123100000010000000000000BRBMEBACNOR8203
012023060702BMEB4       010MERC BRASIL PN      N1   R$  000000000100300000000010060000000001000000000000100200000000010030000000001003000000000100400028000000000000005900000000000005913400000000000000009999123100000010000000000000BRBMEBACNPR5208
012023060702BMGB4       010BANCO BMG   PN      N1   R$  000000000024700000000002630000000000247000000000025600000000002620000000000261000000000026201997000000000001522700000000000391216000000000000000009999123100000010000000000000BRBMGBACNPR0106
99COTAHIST.2023BOVESPA 2023060700000009392                                                                                                                                                                                                           
