00COTAHIST.2023BOVESPA 20230228                                                                                                                                                                                                                      
012023020102CPFE3       010CPFL ENERGIAON      NM   R$  000000000332800000000034150000000003276000000000332700000000033290000000003325000000000332915032000000000002797200000000009306919300000000000000009999123100000010000000000000BRCPFEACNOR0134
012023020102CPLE11      010COPEL       UNT     N2   R$  000000000380000000000038700000000003739000000000378400000000038140000000003814000000000381702997000000000000385900000000001460269000000000000000009999123100000010000000000000BRCPLECDAM13105
99COTAHIST.2023BOVESPA 2023022800000170794                                                                                                                                                                                                           
